:020000040000FA
:10000000001000200102000015020000170200008D
:10001000190200001902000019020000000000008F
:1000200000000000000000000000000019020000B5
:10003000190200000000000019020000190200006F
:100040001902000019020000190200001902000044
:100050001902000019020000190200001902000034
:100060001902000019020000190200001902000024
:100070001902000019020000190200001902000014
:1000800019020000190200001902000045220000B8
:1000900019020000190200001902000019020000F4
:1000A00019020000190200001902000019020000E4
:1000B00019020000190200001902000019020000D4
:1000C00019020000190200001902000019020000C4
:1000D00019020000190200001902000019020000B4
:1000E00019020000190200001902000019020000A4
:1000F0006922000019020000190200001902000024
:100100001902000019020000072000001902000077
:100110001902000019020000190200001902000073
:100120001902000019020000190200001902000063
:100130001902000019020000190200001902000053
:100140001902000019020000190200001902000043
:100150000000000000000000190200001902000069
:10016000190200001902000000000000190200003E
:100170001902000019020000190200001902000013
:100180001902000019020000190200001902000003
:1001900019020000190200001902000019020000F3
:1001A00019020000190200001902000019020000E3
:1001B00019020000190200001902000019020000D3
:1001C00019020000190200001902000019020000C3
:1001D00019020000190200001902000019020000B3
:1001E00019020000190200001902000019020000A3
:1001F0001902000019020000190200001902000093
:100200004EF68850CEF20000016841F470010160A2
:1002100000F004B8FEE7FEE7FEE70000DFF80CD0D0
:1002200002F0F0F9004800474B1F000000100020CA
:10023000EFF3108072B67047EFF310807047EFF362
:10024000108062B6704730BF704780F311887047E6
:10025000EFF31180704700000138FDD170470000B6
:10026000016070474160704710B593B20A014FF6C4
:10027000FF74022906D241689440A14393400B4386
:10028000436010BD203A81689440A14393400B43E2
:10029000836010BDC9B2C0F8081270478B4B19407B
:1002A00041EA02410161704710B54FF0806303EAF3
:1002B000C13301F4B05443EAC433436121F47F41B4
:1002C00041EA0221016110BD10B54FF0806303EADD
:1002D000C13301F4B05443EAC433436121F47F4194
:1002E00041EA0221016110BD10B5022901D210239B
:1002F00001E04FF4407303EB81014358744C2340F9
:100300001343435010BD10B5022901D2102301E060
:100310004FF4407303EB810143586E4C2340134369
:10032000435010BD00EB8100C0F81023704700EB74
:100330008100C0F810237047022901D2102301E088
:100340004FF44073C2F3140203EB8101C0F8602341
:10035000425842F4802242507047022901D21022B2
:1003600001E04FF4407202EB8101425842F4003246
:1003700042507047022901D2102301E04FF440732C
:1003800003EB81014158890301D500207047D0F863
:10039000600380B2106001207047022901D2102250
:1003A00001E04FF4407202EB810142589203FCD409
:1003B000D0F8600380B2704721F0707141EA825139
:1003C00021F47F4141EA032101617047C161704717
:1003D00000EB011002624362704700EB0110826281
:1003E000704700EB011000228262704700EB0110A1
:1003F000806A7047C06E704710B50346002002E067
:100400001C6F401C10C2DC6E002C01D0491EF7D2BC
:1004100010BD10B50346002003E01C6F22F8024B0C
:10042000401CDC6E002C01D0491EF6D210BD10B568
:100430000346002003E01C6F02F8014B401CDC6EF9
:10044000002C01D0491EF6D210BDC0F80012704732
:10045000D0F804027047D0F810220A43C0F81022E6
:100460007047D0F810228A43C0F81022704711B1AB
:10047000D0F818027047D0F814027047D0F81C0268
:100480007047C0F81C12704770B50D4600F014F8A4
:100490000446294600F097FB2046BDE8704000F076
:1004A000DDBB10B500F008F8044600F003FC204660
:1004B000BDE8104000F09ABB074900200968074AD0
:1004C0001140074A914200D142207047FFFF00F8D7
:1004D0000CFFC7FF0CFFC6FF00E00F400000FF70DD
:1004E00000000A10FC4910B5FA4A09681823FB4CB1
:1004F0002140FB4CA14200D1C032002152F83140D2
:10050000844203D102EBC100406810BD491C9942EE
:10051000F4D3002010BDD307D0F8003401D00B4332
:1005200000E08B43C0F800349207D0F8202401D5B6
:100530000A4300E08A43C0F82024704701228A4021
:10054000D0F80034D1B2D0F820240B4201D00120E1
:1005500000E000200A4201D0022100E0002108430F
:100560007047D307D0F8083401D00B4300E08B4329
:10057000C0F808349307D0F8043401D50B4300E0E9
:100580008B43C0F804345307D0F80C3401D50B4327
:1005900000E08B43C0F80C34D103D0F8381502D5F5
:1005A00041F0010101E021F00101C0F83815704768
:1005B00030B500F2044001228A404568D1B2026899
:1005C0008368D0F834410D4201D0012000E00020C2
:1005D0000A4000D0022210430B4201D0042100E067
:1005E0000021084304F00101084301D04FF480309A
:1005F00030BD2DE9F043D407D0F8004501D00C43BD
:1006000000E08C43C0F800459407D0F8044501D5BC
:100610000C4300E08C43C0F804455407D0F808456B
:1006200001D50C4300E08C43C0F808451407D0F80E
:10063000184501D50C4300E08C43C0F81845D4069A
:10064000D0F83C4501D50C4300E08C43C0F83C4554
:10065000C2F3411800244FF0010C4FF0030900F6DB
:10066000C4720CFA04F50D420BD0D0F8C47F6500BB
:1006700009FA05F6B7431760166808FA05F52E4320
:100680001660641CE4B2082CEBD3DA07D0F80C2512
:1006900001D00A4300E08A43C0F80C259A07D0F83D
:1006A000102501D50A4300E08A43C0F810255A07F7
:1006B000D0F8142501D50A4300E08A43C0F8142578
:1006C0001A07D0F81C2501D50A4300E08A43C0F878
:1006D0001C259A05D0F8442501D50A4300E08A4339
:1006E000C0F84425D0F8402513F4407F01D00A43D8
:1006F00000E08A43C0F84025D0F8282523B18A437A
:10070000C0F82825BDE8F0830A43F9E770B5012455
:100710008C40E1B2D0F800450C4000D00124D0F864
:1007200004550D4000D002252543D0F808450C4063
:1007300000D004242C43D0F818550D4000D00825D3
:100740002543D0F83C450C4000D010242C43D0F871
:10075000C45F4E00F54005F0030544EA45141460FB
:10076000D0F80C250A4201D0012400E00024D0F882
:1007700010250A4000D002222243D0F814450C4034
:1007800000D004241443D0F81C250A4000D00822CD
:100790002243D0F840450C4209D0D0F84405084225
:1007A00002D04FF4007001E04FF4807002431A60F1
:1007B00070BD00F58262D0F81004084310607047E5
:1007C00000F58262D0F8100488431060704711B1C0
:1007D000D0F818047047D0F814047047C0F81C14FF
:1007E000704770B50D46FFF77DFE0446294600F0C0
:1007F000EAF92046BDE8704000F030BA10B5FFF7C6
:1008000071FE044600F056FA2046BDE8104000F0A4
:10081000EDB950F82100704740F82120704730B5FD
:100820000C4605460022FFF776FE21462846BDE825
:10083000304000230122DCE630B50C46054602229A
:10084000FFF769FE21462846BDE830400823042210
:10085000CFE630B50C4605460022FFF75CFE214688
:100860002846BDE8304000230122C2E630B50C46E0
:1008700005460222FFF74FFE21462846BDE83040DC
:1008800008230422B5E630B50C4605460222FFF7E0
:1008900042FE21462846BDE8304008230422A8E64F
:1008A00030B50C4605460222FFF735FE21462846A4
:1008B000BDE83040082304229BE630B50C460546CF
:1008C0000222FFF728FE21462846BDE830400823D3
:1008D00001228EE6B426000000E00F400000FF7009
:1008E00000000A1030B50C4605460022FFF713FE43
:1008F00021462846BDE830400823012279E630B57C
:100900000C46054608230122FFF773FE21462846C0
:10091000BDE830400122FEE530B50C46054609230E
:100920000122FFF766FE21462846BDE8304001223D
:10093000F1E530B50C4605460222FFF7ECFD2146F5
:100940002846BDE830400923012252E630B50C4666
:1009500005460222FFF7DFFD21462846BDE830406C
:100960000823012245E630B50C4605460222FFF772
:10097000D2FD21462846BDE830400823042238E64F
:1009800030B50C4605460222FFF7C5FD2146284634
:10099000BDE83040082304222BE630B50C4605465E
:1009A0000022FFF7B8FD21462846BDE8304000236D
:1009B00001221EE630B50C4605460222FFF7ABFDCC
:1009C00021462846BDE830400823012211E630B513
:1009D0000C4605460222FFF79EFD21462846BDE84B
:1009E00030400823012204E630B50C4605460222B9
:1009F000FFF791FD21462846BDE830400A23012239
:100A0000F7E530B50C4605460222FFF784FD214686
:100A10002846BDE8304008230122EAE530B50C46FF
:100A200005460222FFF777FD21462846BDE8304003
:100A300008230122DDE530B50C4605460222FFF70A
:100A40006AFD21462846BDE8304008230122D0E552
:100A500030B50C4605460022FFF75DFD21462846CD
:100A6000BDE8304000230122C3E530B50C46054601
:100A70000222FFF750FD21462846BDE830400823FA
:100A80000122B6E530B50C4605460022FFF743FDCE
:100A900021462846BDE830404FF402730122A8E504
:100AA00030B50C4605460022FFF735FD21462846A5
:100AB000BDE830404FF4847301229AE530B50C460E
:100AC00005460222FFF727FD21462846BDE83040B3
:100AD000082301228DE530B50C4605460222FFF7BA
:100AE0001AFD21462846BDE830400A23012280E550
:100AF00030B50C4605460222FFF70DFD214628467B
:100B0000BDE830400823042273E530B50C460546A5
:100B10000222FFF700FD21462846BDE830400823A9
:100B2000012266E500F5A96070471D4A10B5D36E35
:100B3000C0F3074101228A4013421A4A03D002EB54
:100B4000C1014A6801E052F83120C0F3072102F2E6
:100B50002C53D2F82C250F248C4000F00F00A24318
:100B6000884002431A6010BD00F23452D0F83405B8
:100B700008431060704700F23452D0F834058843BF
:100B80001060704700F5A662D0F830050843106089
:100B9000704700F5A662D0F83005884310607047B2
:100BA00000E00F4034280000FEE710B5FFF747FBD8
:100BB000002800D0012010BD10B5FFF739FB002838
:100BC00000D0012010BD70B58B4D2A688B4CA2421D
:100BD00009D02B68002253F8226044F82260521C8E
:100BE0009B2AF8D32C6044F8201070BD834A8449B6
:100BF00042F820107047834951F820008249084389
:100C00007D49091D086070477B48001D00687D4ACA
:100C100000F4E061002052F820308B4202D0401CEA
:100C20000828F8D37047774A10B520F00303203224
:100C3000D25813688007C00EFF248440A34381402C
:100C40001943116010BD6F4A20F003012032515842
:100C500009688007C00EC140C8B2704766491C31A0
:100C6000042813D0052815D0062818D00F281AD02C
:100C700010280AD3103800F01F0201219140614A68
:100C80004009BC3252F8200001607047086840F407
:100C9000803002E0086840F400300860704708685F
:100CA00040F48020F9E74FF0E020016941F00201B3
:100CB0000161704750491C31042813D0052815D014
:100CC000062818D00F281AD010280AD3103800F0A0
:100CD0001F02012191404B4A4009D03252F82000B6
:100CE00001607047086820F4803002E0086820F452
:100CF000003008607047086820F48020F9E74FF062
:100D0000E020016921F00201016170473A4A014681
:100D100000201C32042914D0052916D0062918D029
:100D20000F291AD010290BD31039364A4809BC3282
:100D300052F82000006801F01F0201219140084094
:100D40007047106800F480307047106800F400307D
:100D50007047106800F4802070474FF0E020006971
:100D600000F0020070472449091F022811D00E2804
:100D700013D00F2816D010280AD3103800F01F0205
:100D8000012191401F4A4009E43252F820000160DD
:100D90007047086840F0004002E0086840F080506A
:100DA00008607047086840F08060F9E71249091F41
:100DB0000E280FD00F2811D010280AD3103800F0B9
:100DC0001F02012191400F4A4009F83252F82000D9
:100DD00001607047086840F0006002E0086840F079
:100DE000007008607047FFF730BAFFF731BA074963
:100DF000103808607047000008ED00E00004002093
:100E0000A90B0000C42800000000FA0500EF00E074
:100E1000FE480068401C00027047FC483C300168F6
:100E2000FB4A1140FB4A914205D180680004400909
:100E300000F500607047F548001F006880B2401C54
:100E4000C0027047F1483C300068F1490840F2495F
:100E5000884208D1ED48001F0068C0F302410A3102
:100E60000120884070474FF480607047C0F307222C
:100E7000EA49C0B2114401F07042C1F3130142EAE1
:100E8000411141EA800040F000700068002800D065
:100E900001207047C0F30722E149C0B2114401F0BC
:100EA0007042C1F3130142EA411141EA800040F06F
:100EB00000700068002800D001207047C0F30723AD
:100EC000D849C0B2194401F07043C1F3130143EA99
:100ED000411141EA800040F0007001220260704739
:100EE000C0F30723CF49C0B2194401F07043C1F3E6
:100EF000130143EA411141EA800040F000700022F2
:100F00000260704708B5C0F30723C749C0B219444F
:100F100001F07043C1F3130143EA411141EA80003B
:100F200040F0007101220A60002200920098401CEB
:100F300000901028FAD30A6008BDC0F30723BB490C
:100F4000C0B2194401F07043C1F3130143EA4111E7
:100F500041EA800040F00070012202607047C0F357
:100F60000723B249C0B2194401F07043C1F3130121
:100F700043EA411141EA800040F000700022026023
:100F80007047C0F30723AA49C0B2194401F0704367
:100F9000C1F3130143EA411141EA800040F00070BF
:100FA000012202607047C0F30723A149C0B219446F
:100FB00001F07043C1F3130143EA411141EA80009B
:100FC00040F00070002202607047C0F30723994987
:100FD000C0B2194401F07043C1F3130143EA411157
:100FE00041EA800040F00070012202607047C0F3C7
:100FF00007239049C0B2194401F07043C1F31301B3
:1010000043EA411141EA800040F000700022026092
:1010100070477E493C310A687D4B1A407D4B9A42AD
:1010200009D10028086E02D040F0006001E020F0F5
:10103000006008667047002851F8B00F02D040F0F9
:10104000005001E020F000500860704710B50146E4
:101050002C20FFF7B8FDBDE810402C20FFF7FEBDA7
:1010600010B52C20FFF726FEBDE810402C20FFF71E
:10107000BDBD66493C314A6D02434A6570476349CC
:101080003C314A6D82434A65704760493C3188650E
:1010900070475E493C3108B1886D7047086D7047F4
:1010A000664965480860FEE7FFF7CDB810B5634CA8
:1010B000241D206840F004002060FFF7C4F8206879
:1010C00020F00400206010BD50483C30C06D7047D7
:1010D0004E493C31CA6D8243CA6570474B493C3129
:1010E000C867704756490842564908D000F0004288
:1010F000C1F85021524A813A0240C1F85021C1F84A
:10110000500180050CD5D1F8540110F4407FFAD07D
:10111000D1F85401C0F30120012801D0002070470C
:101120000120704748490860704747480068704789
:101130002DE9F05FDFF80C810E46D8F80010344A34
:101140001140344A91425FD0C0F3C2013F4BC0F31B
:1011500084174FF4004B022938D006293AD00729CA
:101160003DD010F0380F3ED00024254610F4605FCB
:1011700077D0184600F0B1FA014608F1B0000161DD
:10118000D8F8601121F40001C8F860110168304AF4
:10119000114041F000410160002E7DD0B4FBF6F714
:1011A00007B17F1E781CB4FBF0F6304600F095FACC
:1011B000014608F1B0000161026845EA8721114348
:1011C00041F0004101603046BDE8F09F00251C461B
:1011D0001527CBE747F230544FF40015C6E75C46BD
:1011E0004FF48005C2E7A7F10902122A3ED2194A3C
:1011F0004FF04C75C44652F82740D8F87C20072F92
:1012000022F01C022ADB27E030E02AE0C4DF0F4096
:101210000000FF700000051000000A1000E30F40FE
:1012200000EA0F4000E90F4000E50F4000E60F40E4
:1012300000E70F4000E80F400400FA050CED00E065
:101240000001008000E00F40D8E10F400024F400CE
:10125000FF0300EFD829000042F01002CCF87C20F8
:1012600084E710F0380F03D0022901D00020ABE74B
:10127000C0F30269184600F030FAC8F8C000D8F888
:10128000B000F749084040F00040C8F8B000093FFE
:1012900009EBC901F34800E07FE000EB011000EB2F
:1012A000C701D8F864214968914207D150F8372026
:1012B000D8F8603142F400029A4212D0D8F8B02037
:1012C0004FF0010A2A43C8F8B020C8F8641150F85A
:1012D0003700D8F8601101F400010843C8F8600134
:1012E00001E04FF0000ADF497439701E51F82910EF
:1012F0000844B0FBF6F7D8F86001C0F38921D8F8AC
:101300006001C0F30906D8F86401C0F30423D8F8DB
:1013100064015B1C00F01F00401CB4FBF0F04A09A4
:10132000544201EB441100FB06F4424304EB521219
:10133000484302EB9020B0FBF3F0B0FBF7F63046E9
:1013400000F0CBF9C8F8C000D8F86001000209D558
:10135000BAF1000F0CD0D8F8B00040F08040C8F8C7
:10136000B00005E0D8F8600140F40000C8F8600162
:101370005846D8F86811C90702D1401E0028F8DC89
:1013800048B1D8F8B0007F1E2F43074347F0104004
:10139000C8F8B00017E7002615E7002705E72DE994
:1013A000F041B14F0446386E396F20F4800040F4AC
:1013B000006541F400663D663E6725EA0400C0070B
:1013C00014D064F0010005403D66002E06DAC6F335
:1013D000021003282FD007282DD003E0C5F30110F9
:1013E000032828D04FF40020FEF736FF25F4FE60D6
:1013F00004F4FE6505439D489C490640A13104EA7A
:101400000100304304F0080140EAC1063D663E6732
:101410001020FEF721FF25F4005104F4005040EAAB
:10142000010226F4005108434FF04001B96505D58B
:1014300038673A6604E04FF48050D5E73A6638677B
:101440008B490A40CB4304EA0301114320F0FC52CC
:1014500004F0FC501043620008D5864B20F4800055
:1014600004EA030241F48001024301E020F08042DB
:1014700020050AD44FF400403B6D5B0601D4401EAA
:10148000FAD121F4006122F4006239663A67BDE8BE
:10149000F0411020FEF7E0BE30B5734C226E216F94
:1014A000002902DA01F0700001E002F0300020288B
:1014B00013D003DC40B1102804D10CE030280ED04A
:1014C00070280FD0002030BD7C20664B00EA12103F
:1014D0006C3B185808E0684806E0684804E047F2AA
:1014E000305001E04FF40040002901DA0B0505D52A
:1014F00001F0004302F400652B431DD1D4F86031A4
:10150000D4F8644104F01F05C4F3042405F1010577
:1015100004F1010415FB04F44FEA4404B0FBF4F0B9
:10152000C3F3090404FB00F4C3F3892300FB03F0B5
:1015300004EB902042F480025302C4D5002916DA4D
:101540004B0007D50B050BD501F0004302F40062F8
:10155000134305D0C1F3C551491CB0FBF1F030BDB8
:101560004200C1F38650401CB2FBF0F030BDC2F324
:10157000C351F1E742490860704710B53A4C226800
:10158000404B1A40404B9A4208D1404A21F0FC514E
:1015900002EBC0500143C4F8441110BD401E11F0CD
:1015A000700213D0302A15D0702A18D0324A8B0717
:1015B00001D540F00040490001D540F08040C834DA
:1015C000E067104600F089F8206010BD40F440103C
:1015D0002F4AECE740F4001047F23052E7E740F4BE
:1015E00080004FF40042E2E71F490A6E22F4F01235
:1015F00002430A6670471C48016EC90201D40020EC
:101600007047006E00F4F01070471D4944390A68B5
:1016100022F4706202430A600A6922F47062024393
:101620000A61704716484438006800F470607047DB
:101630000D49CA6E00F00F03012098400243CA66AC
:1016400070470949CA6E00F00F0301209840824399
:10165000CA6670470448016F21F4804101677047F2
:1016600000FC0FE0442A000000E00F408FFFFF7FE6
:10167000FEFF3FF8000040400024F40000093D0058
:1016800044E10F400000FF7000000510000080FFE3
:1016900040787D011848016F41F480410167DEE721
:1016A00015498863DBE71448006ED8E712490A6ED3
:1016B00002430A66D3E71048406ED0E70E494A6EEF
:1016C00082434A66CBE7491EC9B201430B48016019
:1016D000C5E70A4910390860C1E7094A002152F8F4
:1016E0003130834203D302EBC1004068B7E7491CA5
:1016F0000729F4D30020B2E700E00F4048E10F4093
:10170000642B000030B5A24AA04B0C241268A14DF6
:101710002A40A14DAA4201D16033082400220CE0E6
:1017200053F83250854207D103EBC200B1F57F4F29
:10173000406800D1401C30BD521CA242F0D30020B2
:1017400030BDC26840F2011319400A43C2607047BD
:10175000C26840F2011319408A43C260704730B535
:10176000C26840F201139A43C2600A0E0260884ABE
:101770001468884A884D1440CBB2C1F30722AC42AA
:101780000DD14FF4704404EA11151D4345F4007364
:10179000436004EA1121114341F4007104E043F471
:1017A0000071416042F40071816030BD44F2400339
:1017B0001940002AC26801D00A4300E08A43C2608F
:1017C0007047734B10B51B68724C2340724CA34298
:1017D00008D140F20113046F0B400AB11C4300E032
:1017E0009C43046742F220031940002AC26801D0DA
:1017F0000A4300E08A43C26010BD40F60C43194022
:10180000C3680A408B431343C360704740F202230E
:101810001940002AC26801D00A4300E08A43C2602E
:10182000704711F0FF0F07D0436812B143F0400337
:1018300001E023F04003436011F47F4F07D081683B
:1018400012B141F0400101E021F040018160704798
:10185000C16841F01001C1607047C16821F01001FA
:10186000C1607047C0F8C81F7047D0F8C80F7047F4
:1018700011F0FF0F00D0826311F47F4F00D0C263DC
:101880007047FF2901D0C06B7047806B704711F023
:10189000FF0F00D0026411F47F4F00D04264704704
:1018A000FF2901D0406C7047006C704711F0FF0FAA
:1018B00000D0826211F47F4F00D0C2627047FF29CE
:1018C00001D0C06A7047806A7047C3628262704705
:1018D000C16A836AC26A9142FAD118467047FF29E9
:1018E00001D0C06C7047806C7047C16C836CC26C57
:1018F0009142FAD11846704711F0FF0F00D00263F1
:1019000011F47F4F00D042637047FF2901D0406B34
:101910007047006B7047436302637047416B036B12
:10192000426B9142FAD11846704770B51546FFF7E1
:10193000E9FE04462946FFF746F92046BDE8704017
:10194000FFF78CB910B5FFF7DDFE0446FFF7B2F9DB
:101950002046BDE81040FFF749B982690A43826119
:10196000704782698A438261704709B1006A704793
:10197000C0697047416270470161704701677047F5
:10198000006F7047C1667047C06E70479C2B0000A7
:1019900000E00F400000FF7000000A10B04910B5D1
:1019A000AE4A09680823AF4C2140AF4CA14200D198
:1019B0004032002152F83140844203D102EBC10091
:1019C000406810BD491C9942F4D3002010BDC26A82
:1019D00022F086020A43C2627047C06A00F08600A5
:1019E0007047114341637047406B00F0070300F0FC
:1019F00038000B6010607047C16A41F01001C1628D
:101A0000016B40F20132114301637047816909079C
:101A1000FCD4C16A21F01001C162016B40F20132B5
:101A200091430163704770B515460E460446FFF7B3
:101A3000EDFF206BB6EB051F04D240F020002063C1
:101A40006D0802E020F020002063F000B0FBF5F00C
:101A5000401C40088109616200F03F00A062E3621F
:101A60000020A0612046BDE87040C5E730B5456A5A
:101A7000846A4FEA810104EB8514B1FBF4F1116033
:101A8000046BA40601D549001160C06A00F0EE00A5
:101A9000186030BDC16A41F01001C1627047C16A6F
:101AA00021F01001C16270470029016B02D041F0A2
:101AB000060101E041F0020101637047016B21F072
:101AC000060101637047C16A21F0E60141F06E0131
:101AD000C162016B41F0080101637047016B21F0A5
:101AE000080101637047026B01F440611143016317
:101AF0007047026B01F440618A4302637047006BD8
:101B000000F440607047806940F207110840704758
:101B1000026B22F440420A4302637047006B00F4F8
:101B200040407047026B22F010020A430263704784
:101B3000006B00F010007047806940F30010401CFB
:101B40007047806940F34010401C70478169C906A6
:101B500001D4006870474FF0FF3070478169C906B3
:101B6000FCD4006870478269920602D401600120AB
:101B700070470020704782699206FCD4016070476C
:101B80000029C16A02D041F0010101E021F0010108
:101B9000C16270478069C0F3C000704770B50D46E0
:101BA000FFF7FCFE04462946FFF70DF82046BDE886
:101BB0007040FFF753B810B5FFF7F0FE0446FFF78B
:101BC00079F82046BDE81040FFF710B8826B0A4351
:101BD00082637047826B8A438263704709B1006CED
:101BE0007047C06B704741647047826C0A438264DF
:101BF0007047826C8A4382647047406800F00F002F
:101C00007047002141607047C0F8C81F7047D0F886
:101C1000C80F704750F8A41F41F40041016070479D
:101C200050F8A41F21F400410160704740F8A41F40
:101C300042607047826902F08802802AFAD1C26A43
:101C400022F0040343F08203C3620160816901F062
:101C500088018029FAD1C262704700003C2C000044
:101C600000E00F400000FF7000000A10A5490120AD
:101C700048607047A349002048607047A148C06C85
:101C80007047A0490120C864704700F01F0101207F
:101C900088409C498862704700F01F0101208840FD
:101CA0009849C86270479749896A00F01F0201206D
:101CB0009040014201D001207047002070479149B7
:101CC000886070478F48806870478E48C06870474A
:101CD00000F01F01012088408A494861704710B513
:101CE000884B00F01F00CC074FF0010202D002FA2F
:101CF00000F49C618C0702D502FA00F41C634C07C7
:101D000002D502FA00F49C63090701D582401A62E9
:101D100010BD10B57B4B00F01F00CC074FF0010247
:101D200002D002FA00F4DC618C0702D502FA00F45A
:101D30005C634C0702D502FA00F4DC63090701D5A5
:101D400082405A6210BD6F4B10B501469C6900205D
:101D500001F01F02012191400C4200D001201A6BBA
:101D60000A4201D040F002009A6B0A4201D040F0D2
:101D700004001A6A0A4201D040F0080010BD00F0C9
:101D80003F026048806800EB021082685E4B1A4098
:101D90000A4382607047F0B500F03F055948059E40
:101DA000876807EB0514D4F808C043F6F7702CEAEF
:101DB000000CA80605D5042901D0062901D141F05F
:101DC00001016FF00F0000EB0610084340EA0C0021
:101DD00000F0406CBCF1406F05D04FEA9C6C06FAF5
:101DE0000CFE7244521E226000F04042B2F1404F9D
:101DF00007D0042908D0062906D0910F8E4033441D
:101E00005B1EC4E90130F0BD45F0200107EB011372
:101E10000C33F6E770B53B4D00F01F00AC6802EBE9
:101E2000011604EB0012361F166040F0200604EB8A
:101E300006140C3454608C01103C0BB1062100E0F8
:101E400004210C4331490C439460012181406963B2
:101E500070BD00F03F012B48806800EB01108068E6
:101E600043F6F771084001D00009401C704725492E
:101E700000F03F00896801EB00108068022100F04B
:101E80000700B1EB500F03D00321B1EB500F01D18C
:101E900020F0010070471E490A6802430A6070473B
:101EA0001B490A6882430A60704710B50446FEF772
:101EB0008AFE2046BDE81040FEF7D0BE10B50446AD
:101EC000FEF7F8FE2046BDE81040FEF78FBE104832
:101ED000001D006870470E49091D086070470C4BD3
:101EE000C1B2020CC808103310B503EB80004907DB
:101EF0000368C90E0F248C40A3438A401343036038
:101F000010BD000000F00F40F73FFC00008000AA69
:101F100000F50F4010B50446C1B21B48FFF72BFE79
:101F2000204610BD10B51948FFF707F81848FEF70E
:101F3000FCFD02211748FEF77EFDBDE81040164A61
:101F40004FF4E131012000F0E9B913491348FFF7DC
:101F5000EFF800F079F800F05DF900F033F800F0E8
:101F600094F9FFF7DFFFFF210D48FFF7EAFBFEF7CB
:101F70001CFE0C4CD4F81412D4F81C22D4F80432F1
:101F800009A000F027FBF5E700D00040011800F0A1
:101F90000104010000500040000E2707400500F139
:101FA0000000034000000D405249532025642020CA
:101FB00049534320256420204649464F434E542030
:101FC00025640A0010B51B48FEF7B7FF1A4C1C2108
:101FD0002046FEF747F912212046FEF741F900227C
:101FE00016492046FEF760F920212046FEF7EEF95B
:101FF00013492046FEF729FA4220FEF72FFE216EF4
:102000004906FCD410BD70B50B4D2846FEF736FAD4
:102010000C4C010002D02088401C20802846FEF78E
:1020200030FA00212846FEF722FA002800D060800E
:1020300070BD0000001000F000000D404100800065
:1020400020000200000000202DE9F0475C48FEF768
:1020500074FF5B48401CFEF770FF5948801CFEF778
:102060006CFF5748C01CFEF768FF5548001DFEF77F
:1020700064FF5348401DFEF760FF5148801DFEF786
:102080005CFF4F48C01DFEF758FF4D480830FEF773
:1020900054FF4B480930FEF750FF49480A30FEF71D
:1020A0004CFF47480B30FEF748FF45480C30FEF721
:1020B00044FF43480D30FEF740FF41480E30FEF725
:1020C0003CFF41493F4808603F4AFF21121D116013
:1020D0003E4A1060101D01603D48FEF726FD3D4858
:1020E000FEF723FD3C48FEF720FD3C48FEF71DFDB2
:1020F0003B48FEF71AFD3B48FEF717FD3A48FEF74E
:1021000014FD3A48FEF711FD41F60F00FEF70DFDF4
:1021100041F60F40FEF709FD3548FEF706FD35484C
:10212000FEF703FD3448FEF700FD3448FEF7FDFCE2
:102130004FF0402408230122C0212046FEF759FA1F
:102140002F4D08230122F0212846FEF752FA2D4E8A
:102150000823012203213046FEF74BFA2A4F0823B9
:1021600001220F213846FEF744FADFF8A080082349
:10217000012219464046FEF73CFADFF89490082306
:10218000012204214846FEF734FAC0212046FEF71A
:102190006DFBF0212846FEF769FB03213046FEF770
:1021A00065FB0F213846FEF761FB08214046FEF72C
:1021B0005DFB4846BDE8F0470421FEF757BB000031
:1021C000000800F04B434F4C20750040206506404E
:1021D0000F0009000F0409000F0809000F0C090087
:1021E0000F1C02000F1802000F1402000F10020053
:1021F0000F0406000F0006000F0C0B000F080D0067
:1022000000600040006002400010064000300640C0
:102210000050064010B51148FEF78FFE104C2221E9
:102220002046FFF79CFA45F6C052FF212046FFF7F3
:102230003DFB01212046FFF790FBBDE81040232025
:10224000FEF70CBD10B501210548FFF793FB0022F6
:10225000BDE810401021034800F042B8000400F02F
:10226000000003406C06002010B5FFF707FD0028B2
:102270000AD0FFF706FD23480168491C0160BDE84C
:10228000104021A000F0EEB910BD10B5214C204641
:10229000FEF753FE2046FEF774FE3D20FEF7DEFCFF
:1022A000FFF7E4FC3C20FEF7D9FC1B48FFF707FDD5
:1022B0004FF40010FFF7EFFD0D211520FFF729FD6A
:1022C00005211520FFF70BFD4FF400411520FFF706
:1022D00056FDAFF26B01BDE810403F20FFF7E5BDB2
:1022E00008B500290CD0A2F18043024600910121DB
:1022F0001520FFF750FDBDE808401520FFF7C5BCCD
:1023000008BD00000400002075444D412045525294
:1023100020210A00000C00F0000800202DE9F04701
:102320004FF080758946696CAF4F04460969904645
:1023300057F824008847002817D0A7F10C00AB4EAF
:1023400050F824007060696C57F824008969884748
:10235000686960234A46446941467068A0476869D5
:10236000C1697068BDE8F0470847BDE8F0872DE90E
:10237000F0418846054600244FF080769B4F0DE0E3
:10238000285D0A2804D170690D2102687868904799
:102390007069295D026878689047641C4445EFD3F2
:1023A0002046BDE8F0812DE9F04700248F4D80469E
:1023B0004F1EA1464FF080767069816B6868884730
:1023C00040B2082812D00A2818D00D281BD00A289D
:1023D0001BD01B2819D0BC42EED2C1B208F80410A1
:1023E0007069641C026868689047E5E7002CE3D0D8
:1023F00003217FA0FFF7BBFF641EDDE7287820B133
:1024000085F80090D8E70120287008F80490022190
:1024100078A0FFF7ACFF2046A7E710B54FF080701B
:102420004069816B714840688847C0B210BD2DE992
:10243000F04F85B00E4605464FF02D0B0DF1040A06
:10244000C1E0002400E0641C285D252801D000289C
:10245000F9D121462846FFF78AFF25442878252808
:1024600073D16D1C0024202715F8010B38282CD0BF
:1024700014DC332829D008DC252867D0302824D064
:10248000312822D032281DD11FE034281DD0352814
:102490001BD0362819D0372814D116E0692825D04A
:1024A00008DC392811D0582846D0632819D0642870
:1024B00008D11BE070283FD0732823D0752836D070
:1024C000782839D005214CA07BE015F8010C302884
:1024D00001D104B9302704EB840149003039441894
:1024E000C2E701CE0090012168466AE001CE0021DA
:1024F0000090002803DA40420123009000E000230E
:102500000A221EE001CE002700E07F1CC15D0029E9
:10251000FBD13946FFF72BFFBC4254D9E41B03E043
:10252000012137A0FFF723FF641E4CD3F8E701CE4B
:1025300000210A22009003E001CE00211022009029
:1025400000230120DDF8009003E03CE037E0604626
:10255000641E00FB02FCCC4503D8BCFBF2F88045AE
:10256000F5D033B1641E302F03D10AF801B0491CF5
:102570000023A4F1020CBCF10E0F07D2641E05D09B
:10258000D4460CF80170491C641EFAD113B10AF844
:1025900001B0491C144F5446103F70B1B9FBF0F321
:1025A000B3FBF2FC02FB1C33D7F800C0B0FBF2F027
:1025B0001CF803306354491CEFE701A801E0012136
:1025C000681EFFF7D4FE287800287FF43AAF05B0E4
:1025D000BDE8F08F0FB410B503A90298FFF727FFED
:1025E00010BC5DF814FB0000CC2C0000080000209B
:1025F000082008000D0A00004552524F520000000A
:1026000020000000064C074D06E0E06840F00103A2
:1026100094E8070098471034AC42F6D3FDF702FE69
:10262000EC2C00000C2D000030B58C1810F8012B9C
:1026300012F00F0301D110F8013B120906D110F876
:10264000012B03E010F8015B01F8015B5B1EF9D17F
:1026500001E001F8013B521EFBD1A142E6D300206C
:1026600030BD0000014A024900F013B8151F0000F8
:102670001000002002E008C8121F08C1002AFAD189
:1026800070477047002001E001C1121F002AFBD1F2
:1026900070472DE9F04116460F460446002503E039
:1026A0003946B0476D1C641C20780028F8D12846B4
:1026B000BDE8F081004000401000000000800540AF
:1026C0001000000000500040110000000090054084
:1026D00011000000006000401200000000A0054052
:1026E00012000000007000401300000000B0054020
:1026F00013000000004002401400000000C005402C
:1027000014000000005002402E00000000D00540E0
:102710002E000000006002402F00000000E0054095
:102720002F000000007002403000000000F0054063
:102730003000000000D003404600000000000640CA
:102740004600000000100640470000000020064040
:1027500048000000003006407F00000000400640B6
:102760008000000000500640840000000060064029
:102770008C00000000400040100000000080054078
:1027800010000000005000401100000000900540C3
:1027900011000000006000401200000000A0054091
:1027A00012000000007000401300000000B005405F
:1027B00013000000004002401400000000C005406B
:1027C00014000000005002402E00000000D0054020
:1027D0002E000000006002402F00000000E00540D5
:1027E0002F000000007002403000000000F00540A3
:1027F0003000000000D0034043000000000006400D
:102800004300000000100640440000000020064085
:10281000450000000030064058000000004006401F
:1028200059000000005006405C00000000600640B7
:10283000640000000040004000800540005000405F
:10284000009005400060004000A00540007000407E
:1028500000B005400040024000C00540005002406A
:1028600000D005400060024000E0054000700240DA
:1028700000F0054000D00340000006400010064074
:1028800000100640002006400020064000300640B0
:102890000030064000400640004006400050064020
:1028A0000050064000600640006006400070064090
:1028B0000070064000800640008006400090064000
:1028C0000090064000070000000600000005000020
:1028D00000040000000300000002000000010000EE
:1028E000000000000000000018ED00E01CED00E01A
:1028F00020ED00E000E400E004E400E008E400E093
:102900000CE400E010E400E014E400E018E400E06F
:102910001CE400E020E400E024E400E028E400E01F
:102920002CE400E030E400E034E400E038E400E0CF
:102930003CE400E040E400E044E400E048E400E07F
:102940004CE400E050E400E054E400E058E400E02F
:102950005CE400E060E400E064E400E068E400E0DF
:102960006CE400E070E400E074E400E078E400E08F
:102970007CE400E080E400E084E400E088E400E03F
:1029800000E100E004E100E008E100E00CE100E02B
:1029900010E100E080E100E084E100E088E100E097
:1029A0008CE100E090E100E000E200E004E200E001
:1029B00008E200E00CE200E010E200E080E200E06B
:1029C00084E200E088E200E08CE200E090E200E0D7
:1029D00000D0121300389C1C40420F0000201C0045
:1029E00080841E0000802500999E3600004038003B
:1029F00000093D0000803E0000004B00404B4C00B1
:102A000000204E00808D5B0000C05D0000807000E3
:102A100000127A0000007D0080969800001BB7002D
:102A20000080BB00C0E8CE00647ADA000024F40025
:102A30000000FA0080A81201002D310100366E015D
:102A400040787D0140000000000000003E000800CA
:102A500000000000A000000002000000345401004B
:102A6000000000002B70060000000000280000009D
:102A7000000000002700010000000000200000000E
:102A80000000000050000000020000001AAC00002E
:102A900000000000179409000000000016980500CF
:102AA0000000000014000000000000001380080077
:102AB00000000000A000000008000000100000005E
:102AC000000000002800000002000000400000009C
:102AD0000400000060000000000000005D000C0029
:102AE0000000000050000000000000004E00020046
:102AF0000000000041AC0100000000003C000000AC
:102B0000000000003A8009000000000030000000D2
:102B10000000000028000000000000002700010065
:102B20000000000023600600000000002160080093
:102B3000000000001E000000000000001DC0040096
:102B4000000000005000000002000000180000001B
:102B50000000000014000000000000006000000001
:102B6000040000000024F4003000300080C3C901DC
:102B70007100710080F0FA02B200B2000087930386
:102B8000D300D30000B4C4041401140100E1F5051E
:102B900055015501000E27079601960100000340DC
:102BA0002300000000100340250000000020034027
:102BB00027000000003003403300000000400340C5
:102BC00056000000005003406C000000006003400D
:102BD0006E000000007003407000000000C0044060
:102BE0007200000000D004407400000000E00440C7
:102BF0007600000000F00440780000000000034070
:102C000023000000001003402500000000200340C6
:102C10002700000000300340330000000040034064
:102C20004F000000005003405100000000000E4023
:102C30007200000000100E407400000000C0004050
:102C40001500000000D000401600000000E0004029
:102C50003100000000F000404B0000000000014087
:102C60004C000000001001404D0000000020014019
:102C70004E000000003001404F00000000C0004046
:102C80001500000000D000401600000000E00040E9
:102C90003100000000F0004048000000000001404A
:102CA00049000000001001404A00000000200140DF
:102CB0004B000000003001404C000000D82C000008
:102CC00000C0004000D0004000E00040001800F0CC
:102CD000011800F0021800F0303132333435363745
:102CE0003839616263646566000000000C2D0000E5
:102CF000000000206C060000282600001C2D0000AB
:102D00006C060020940900008426000001FF01FFEA
:0C2D100001FF01FF01FF01FF017900003D
:040000050000021DD8
:00000001FF
